---
original: b1b434dcd6b2924b3ba3d7e5fcb4ec326a373e79c9065c86fb67b769ee4bd927
---

---
eip: 3224
title: 記述されたデータ
description: 署名可能なデータの人間可読の説明を計算するためのコントラクトメソッド。
author: Richard Moore (@ricmoo)、Nick Johnson (@arachnid)
discussions-to: https://github.com/ethereum/EIPs/issues/3225
status: 停滞
type: Standards Track
category: ERC
created: 2021-01-23
requires: 191
---


## 概要

機械可読のデータで記述された、機械実行可能な操作の人間可読の説明。ウォレットがユーザーに対して、ユーザーが実行しようとしている操作を意味のある形で提示できるようにする。


## 動機

Ethereumウォレット(MetaMask、Clef、ハードウェアウォレットなど)を使用する際、ユーザーはメッセージの署名や取引の送信を承認・認証する必要があります。

Ethereumの取引の複雑さから、ウォレットはユーザーが承認している取引の内容を詳しく説明する能力が非常に限られています。ERC20トランスファーなどの一般的な取引を除いては、ユーザーに不透明なバイナリデータの署名を求めることが多いのが現状です。

このEIPは、dappの開発者がウォレットに対して、取引の内容をより分かりやすく説明する手段を提供することで、ユーザーエクスペリエンスの向上を目指すものです。

悪意のあるコントラクトが嘘の説明をすることへの対策は行いませんが、正直なコントラクトが自身の利用者の生活を良くしたいという合理的なセキュリティモデルを採用しています。取引の説明はコントラクトコードと同時に監査できるため、説明が正確であることを確認できると考えています。


## 仕様

**説明文字列**と**記述されたデータ**は、コントラクト(つまり**記述子**)を評価することで同時に生成されます。**記述子入力**をメソッドに渡します:

```solidity
function eipXXXDescribe(bytes describer_inputs) view returns (string description_string, bytes described_data);
```

このメソッドはスタティックコンテキストで実行可能でなければなりません(つまり、logX、sstoreなどの副作用は無視されます)。

評価中は、`ADDRESS`(つまり`to`)、`CALLER`(つまり`from`)、`VALUE`、`GASPRICE`が、説明対象の取引と同じ値でなければなりません。署名する**記述メッセージ**の場合、`VALUE`は常に0でなければなりません。

バイトコードを実行する際は、`BLOCKHASH`、`NUMBER`、`TIMESTAMP`、`DIFFICULTY`が`"latest"`ブロックと一致するよう最善の努力をしてください。`COINBASE`はゼロアドレスでなければなりません。

メソッドがrevertする場合、署名は中止されなければなりません。


### 新しいJSON-RPCメソッド

秘密鍵を管理するクライアントは、関連するアカウントとのやり取りのための追加メソッドを公開する必要があります。

ユーザーインターフェイスが存在しない、またはその他のアカウントベースの操作に期待されていない場合、説明文字列は無視され、記述されたデータが直接使用されます。

これらのJSON-RPCメソッドは標準的なEthereum ライブラリでも実装されるため、JSON-RPCの説明はより正式な方法を示すことを意図しています。


### 記述メッセージの署名

```solidity
eth_signDescribedMessage(address, describer, describerInput)
// 結果: {
//   description: "text/plain;Hello World",
//   data: "0x...", // 記述されたデータ
//   signature: "0x..."
// }
```

**記述子**を呼び出して**記述子入力**を渡すことで、**説明文字列**と**記述されたデータ**を計算します。`VALUE`は0でなければなりません。

ウォレットにメッセージの署名を承認/拒否するユーザーインターフェイスがある場合、説明文字列をユーザーに提示する必要があります。オプションで、記述されたデータを確認する方法を提供することもできます。

承認された場合、計算された**記述データ**を[EIP-191](./eip-191.md)に従って署名します。*バージョンバイト*は`0x00`、*バージョン固有のデータ*は記述子アドレスです。

つまり:

```
0x19   0x00   DESCRIBER_ADDRESS   0xDESCRIBED_DATA
```

結果には**記述データ**が含まれるため、dappがコントラクトで計算されたパラメーターを利用できるようになります。

### 記述された取引の送信

```solidity
eth_sendDescribedTransaction(address, {
  to: "0x...",
  value: 1234,
  nonce: 42,
  gas: 42000,
  gasPrice: 9000000000,
  describerInput: "0x1234...",
})
// 結果: {
//   description: "text/plain;Hello World",
//   transaction: "0x...", // シリアライズされた署名済み取引
// }
```

**記述子**の`to`を呼び出して**記述子入力**を渡すことで、**説明文字列**と**記述されたデータ**を計算します。

ウォレットにユーザーが取引を承認/拒否するためのユーザーインターフェイスがある場合、説明文字列とともに手数料と金額の情報を提示する必要があります。オプションで、取引の詳細を確認する方法を提供することもできます。

承認された場合、取引データを計算された**記述データ**に設定し、取引に署名して送信します。**説明文字列**とシリアライズされた署名済み取引を返します。


### 記述された取引の署名

```solidity
eth_signDescribedTransaction(address, {
  to: "0x...",
  value: 1234,
  nonce: 42,
  gas: 42000,
  gasPrice: 9000000000,
  describerInput: "0x1234...",
})
// 結果: {
//   description: "text/plain;Hello World",
//   transaction: "0x...", // シリアライズされた署名済み取引
// }
```

**記述子**の`to`を呼び出して**記述子入力**を渡すことで、**説明文字列**と**記述されたデータ**を計算します。

ウォレットにユーザーが取引を承認/拒否するためのユーザーインターフェイスがある場合、説明文字列とともに手数料と金額の情報を提示する必要があります。オプションで、取引の詳細を確認する方法を提供することもできます。

承認された場合、取引データを計算された**記述データ**に設定し、取引に署名(送信はしない)して、**説明文字列**とシリアライズされた署名済み取引を返します。

### 説明文字列

**説明文字列**はMIMEタイプで始まり、セミコロン(`;`)が続きます。このEIPでは`text/plain`のMIMEタイプのみを指定していますが、将来のEIPでは`text/markdown`などのより豊かな処理を可能にするタイプを指定する可能性があります。これにより、クライアント内でアドレスをリンク可能にしたり、マルチロケール対応を実現したりできます(multipart/form-dataのように)。


## 根拠

### メタ説明

この問題を解決しようとする試みは多数ありますが、多くの場合、エンコードされた取引データやメッセージデータを直接調べようとしています。

多くの場合、意味のある説明に必要な情報は、最終的にエンコードされた取引データやメッセージデータには含まれていません。

代わりに、このEIPは間接的な方法でデータを説明します。

例えば、ENSの`commit(bytes32)`メソッドは、ブロックチェーン上にコミットメント**ハッシュ**を置きます。このハッシュには**ブラインド化された**名前とアドレスが含まれています。名前がブラインド化されているため、エンコードされたデータ(つまりハッシュ)には元の値が含まれておらず、必要な値にアクセスするのに十分ではありません。

代わりに、コミットメントを間接的に説明する(元の情報:名前、所有者、シークレットを保持したまま)ことで、意味のある説明を計算できます(例: "NAME for ADDRESS (with SECRET)にコミットする")。そして、一致するデータ(つまり`commit(hash(name, owner, secret))`)を計算できます。

### コントラクトアドレスの絡め込み

ある契約から署名されたデータが別の契約に対して使用されるのを防ぐため、コントラクトアドレスはトランザクション(暗黙的に`to`フィールドを介して)とメッセージ(EIP-191のバージョン固有のデータを介して)の両方に絡め込まれています。

ゼロアドレスは予約されています。

### 代替案

- NatSpecなどはより複雑な言語の一種で、エンコードされたデータを直接記述しようとしています。言語の複雑さのため、大規模な実行環境と十分なメモリが必要になり、セキュリティ上の懸念から追加のサンドボックス化も必要になることが多いです。このEIPの目的の1つは、ハードウェアウォレットやその他のシンプルなウォレットで実行できるような複雑さの低減です。これらのアプローチはデータを直接記述しますが、多くの場合(ブラインドデータなど)、データを適切に記述することはできません。

- カスタム言語; Ethereumの取引の複雑さから、使用する言語は非常に表現力が必要で、最初から作り直す必要があります。EVMは既に存在しており(理想的ではないかもしれませんが)、必要なすべてを処理できます。 

- フォーマット文字列(例:Trustless Signing UI Protocol); フォーマット文字列は正規言語のクラスでしか動作できず、多くの場合Ethereum取引を記述するには不十分です。これは、この問題を解決しようとした初期の試みでよく問題になっていました。

- 署名型データ[EIP-712](./eip-712.md)は、このEIPが解決しようとしている問題と多くの共通点があります。

- @TODO: 他にも


## 下位互換性

メッセージの署名はすべて[EIP-191](./eip-191.md)を使用しており、以前のバージョンバイト`0x00`と互換性があるため、下位互換性の問題はないはずです。


## テストケース

すべてのテストケースは公開され検証されたコントラクトに対して動作します:

- Formatter: Ropsten @ 0x7a89c0521604008c93c97aa76950198bca73d933
- TestFormatter: Ropsten @ 0xab3045aa85cbcabb06ed3f3fe968fa5457727270

署名メッセージと取引に使用される秘密鍵は以下の通りです:

```
privateKey = "0x6283185307179586476925286766559005768394338798750211641949889184"
```


### メッセージ

**例: 署名メッセージでログインする**

- selectorはlogin()を送信
- 受信したデータのselectorはdoLogin(bytes32 timestamp)

```
入力:
  アドレス:         0xab3045AA85cBCaBb06eD3F3FE968fA5457727270
  記述子入力: 0xb34e97e800000000000000000000000000000000000000000000000000000000
  つまり             エンコード(
                       [ "bytes4" ],
                       [ SEL("login()") ]
                   )

出力:
  説明:     text/plain;ethereum.orgにログインしますか?
  データ:            0x14629d78000000000000000000000000000000000000000000000000000000006010d607
  つまり             encodeWithSelector("doLogin(bytes32)", "0x000000000000000000000000000000000000000000000000000000006010d607" ]

署名:
  プリイメージ:  0x1900ab3045aa85cbcabb06ed3f3fe968fa545772727014629d78000000000000000000000000000000000000000000000000000000006010d607
  署名: 0x8b9def29343c85797a580c5cd3607c06e78a53351219f9ba706b9985c1a3c91e702bf678e07f5daf5ef48b3e3cc581202de233904b72cf2c4f7d714ce92075b21c
```

### 取引

すべての取引テストケースはropsten network(chainId: 3)を使用し、指定されていないプロパティはすべて0を使用します。

**例: ERC-20トランスファー**

```
入力:
  アドレス:            0xab3045AA85cBCaBb06eD3F3FE968fA5457727270
  記述子入力:    0xa9059cbb000000000000000000000000000000000000000000000000000000000000000
000000000000000000000000008ba1f109551bd432803012645ac136ddd64dba720000000000000000000000000000000000000000000000002b992b75cbeb6000
  つまり                エンコード(
                          [ "bytes4", "address", "uint"],
                          [ SEL("transfer(address,uint256)"), "0x8ba1f109551bD432803012645Ac136ddd64DBA72", 3.14159e18 ]
                      )
出力:
  説明:        text/plain;"ricmoose.eth" (0x8ba1f109551bD432803012645Ac136ddd64DBA72)に3.14159 TOKNを送信しますか?
  記述データ:     0xa9059cbb0000000000000000000000000000000000000000000000002b992b75cbeb60000000000000000000000000008ba1f109551bd432803012645ac136ddd64dba72
  つまり                encodeWithSelector("transfer(address,uint256)", "0x8ba1f109551bD432803012645Ac136ddd64DBA72", 3.14159e18)

署名:
  署名済み取引: 0xf8a280808094ab3045aa85cbcabb06ed3f3fe968fa545772727080b844a9059cbb0000000000000000000000000000000000000000000000002b992b75cbeb60000000000000000000000000008ba1f109551bd432803012645ac136ddd64dba7229a0f33ea492d326ac32d9b7ae203c61bf7cf0ac576fb0cf8be8e4c63dc89c90de12a06c8efb28aaf3b70c032b3bd1edfc664578c49f040cf749bb19b000da56507fb2
```

**例: ERC-20承認**

```
入力:
  アドレス:            0xab3045AA85cBCaBb06eD3F3FE968fA5457727270
  記述子入力:    0x095ea7b3000000000000000000000000000000000000000000000000000000000000000000000000000000008ba1f109551bd432803012645ac136ddd64dba720000000000000000000000000000000000000000000000002b992b75cbeb6000
  つまり                エンコード(
                          [ "bytes4", "address", "uint"],
                          [ SEL("approve(address,uint256)"), "0x8ba1f109551bD432803012645Ac136ddd64DBA72", 3.14159e18 ]
                      )

出力:
  説明:        text/plain;"ricmoose.eth" (0x8ba1f109551bD432803012645Ac136ddd64DBA72)に3.14159 TOKNトークンの管理を承認しますか?
  記述データ:     0xa9059cbb0000000000000000000000000000000000000000000000002b992b75cbeb60000000000000000000000000008ba1f109551bd432803012645ac136ddd64dba72
  つまり                encodeWithSelector("approve(address,uint256)", "0x8ba1f109551bD432803012645Ac136ddd64DBA72", 3.14159e18)

署名:
  署名済み取引: 0xf8a280808094ab3045aa85cbcabb06ed3f3fe968fa545772727080b844a9059cbb0000000000000000000000000000000000000000000000002b992b75cbeb60000000000000000000000000008ba1f109551bd432803012645ac136ddd64dba7229a0f33ea492d326ac32d9b7ae203c61bf7cf0ac576fb0cf8be8e4c63dc89c90de12a06c8efb28aaf3b70c032b3bd1edfc664578c49f040cf749bb19b000da56507fb2
```

**例: ENSコミット**

```
入力:
  アドレス:            0xab3045AA85cBCaBb06eD3F3FE968fA5457727270
  記述子入力:    0x0f0e373f000000000000000000000000000000000000000000000000000000000000000000000000000000000000000000000000000000000000000000000080000000000000000000000000e31f43c1d823afaa67a8c5fbb8348176d225a79e65462b0520ef7d3df61b9992ed3bea0c56ead753be7c8b3614e0ce01e4cac41b00000000000000000000000000000000000000000000000000000000000000087269636d6f6f7365000000000000000000000000000000000000000000000000
  つまり                エンコード(
                          [ "bytes4", "string", "address", "bytes32"],
                          [ SEL("commit(string,address,bytes32)"), "ricmoose", "0xE31f43C1d823AfAA67A8C5fbB8348176d225A79e", "0x65462b0520ef7d3df61b9992ed3bea0c56ead753be7c8b3614e0ce01e4cac41b" ]
                      )
  
出力:
  説明:        text/plain;ENSの名前"ricmoose.eth"を0xE31f43C1d823AfAA67A8C5fbB8348176d225A79eにコミットしますか?
  記述データ:     0xf14fcbc8e4a4f2bb818545497be34c7ab30e6e87e0001df4ba82e7c8b3f224fbaf255b91
  つまり                encodeWithSelector("commit(bytes32)", makeCommitment("ricmoose", "0xE31f43C1d823AfAA67A8C5fbB8348176d225A79e", "0x65462b0520ef7d3df61b9992ed3bea0c56ead753be7c8b3614e0ce01e4cac41b"))

署名:
  署名済み取引: 0xf88180808094ab3045aa85cbcabb06ed3f3fe968fa545772727080a4f14fcbc8e4a4f2bb818545497be34c7ab30e6e87e0001df4ba82e7c8b3f224fbaf255b912aa0a62b41d1ebda584fe84cf8a05f61b429fe4ec361e13c17f30a23281106b38a8da00bcdd896fe758d8f0cfac46445a48f76f5e9fe27790d67c51412cb98a12a0844
```

**例: WETH mint()**

```
入力:
  アドレス:            0xab3045AA85cBCaBb06eD3F3FE968fA5457727270
  記述子入力:    0x1249c58b00000000000000000000000000000000000000000000000000000000
  つまり                エンコード(
                          [ "bytes4" ],
                          [ SEL("mint()") ]
                      )
  Value:              1.23 ether

出力:
  説明:        text/plain;1.23 WETHをミントしますか?(1.23 etherを使用)
  記述データ:     0x1249c58b
  つまり                encodeWithSelector("mint()")

署名:
  署名済み取引: 0xf86980808094ab3045aa85cbcabb06ed3f3fe968fa5457727270881111d67bb1bb0000841249c58b29a012df802e1394a97caab23c15c3a8c931668df4b2d6d604ca23f3f6b836d0aafca0071a2aebef6a9848616b4d618912f2003fb4babde3dba451b5246f866281a654
```

## 参考実装

@TODO (考慮: `../assets/eip-####/`にファイルとして追加)

Solidityとjavascriptの例を追加します。


## セキュリティ上の考慮事項

### テキストのエスケープ

ウォレットはコントラクトから提供されるテキストを表示する際、適切な対策を講じる必要があります。例えば以下のことに注意が必要です:

- HTMLが埋め込まれ、web上のウォレットにコードの実行を誤らせようとする可能性(秘密鍵をサーバーにアップロードするなど)
- HTMLを描画する際は一般的に極端な注意が必要; ENSの名前`<span style="display:none">not-</span>ricmoo.eth`や`&thinsp;ricmoo.eth`のように、注意深く処理しないと`ricmoo.eth`と表示されてしまう
- エスケープが必要な引用符(`"`), 書式(`\n` (改行), `\f` (フォームフィード), `\t` (タブ), その他多くの非標準的な空白文字), バックスラッシュ(`\`)など
- UTF-8にはコードポイントの任意のコード実行やレンダラークラッシュを引き起こすバグがあった; 一般的なプレーンや平面内の一般的なサブセット以外のコードポイントには、UTF-8の置換文字(または*何か*)を使用することを検討する
- ホモグリフ攻撃
- 右から左への記号が描画に影響する可能性
- その他多数、環境によって異なる

### 明確に署名されたデータ

このEIPを実装してメッセージデータに署名するアプリケーションは、曖昧に署名されたデータの衝突がないことを確認する必要があります。

@TODO: これについてさらに詳しく説明する; パックされたデータとABIエンコードデータを比較するなど?

### 列挙

署名中にabortが発生した場合、この呼び出しの応答は署名リクエストが拒否された場合の応答と一致する必要があります。そうしないと列挙攻撃などに使用される可能性があります。また、応答が10ms未満の場合はエラーと解釈される可能性があるため、ランダムな対話スケールの遅延も追加する必要があります。

### 再生可能性

取引にはexplicitなnonceが含まれていますが、署名メッセージには含まれていません。

多くの目的(ログインなど)では、データにnonceを注入(block.timestampを使用)できます。ログインサービスはこれが最近のタイムスタンプであることを確認できます。タイムスタンプは説明文字列から省略してもよいかもしれません。

一般的に、メッセージに署名する際は、同じ署名データが将来使用されるのを防ぐためにnonceを含めることが多いです。


## 著作権

著作権およびそれに関連する権利は[CC0](../LICENSE.md)で放棄されています。